:100000000C9464000C948C000C948C000C948C0068
:100010000C948C000C948C000C948C000C94ED0AC5
:100020000C948C000C948C000C948C000C948C0020
:100030000C948C000C948C000C948C000C948C0010
:100040000C94EE030C948C000C945E070C9438070F
:100050000C948C000C948C000C948C000C948C00F0
:100060000C948C000C948C000000000024002700ED
:100070002A000000000023002600290000000008DC
:10008000000201000003040700000000000000005F
:10009000010204081020408001020408102001021F
:1000A0000408102000000000250028002B00040494
:1000B0000404040404040202020202020303030310
:1000C00003030200B010A01011241FBECFEFD8E030
:1000D000DEBFCDBF12E0A0E0B1E0E2EDFBE202C086
:1000E00005900D92AA32B107D9F723E0AAE2B2E057
:1000F00001C01D92A63CB207E1F710E0C3E6D0E0D4
:1001000004C02197FE010E940C12C236D107C9F724
:100110000E94290C0C94DC150C9400003FB7F89455
:1001200080912F0290913002A0913102B091320261
:1001300026B5A89B05C02F3F19F00196A11DB11D42
:100140003FBFBA2FA92F982F8827820F911DA11D7D
:10015000B11DBC01CD0142E0660F771F881F991FBA
:100160004A95D1F70895CB0108957F928F929F927F
:10017000AF92BF92CF92DF92EF92FF920F931F93B5
:10018000CF93DF93EC0149015A018B01C12CD12C93
:100190007601C814D904EA04FB0484F5F8017190CF
:1001A0008F018F8580FF0BC0E881F9810084F18584
:1001B000E02D20E144E060E070E0CE010995EB85A0
:1001C000FC858D859E85E817F90738F470828B854C
:1001D0009C8501969C878B870BC0E881F981672DF0
:1001E00070E0028CF38DE02DCE010995019649F067
:1001F0002FEFC21AD20AE20AF20ACBCFB401C5012C
:1002000002C0B601C701DF91CF911F910F91FF90FE
:10021000EF90DF90CF90BF90AF909F908F907F90A6
:100220000895CF93DF93EC01E881F9810288F38987
:10023000E02D09958F3F2FEF920731F02D813E8100
:100240002F5F3F4F3E832D83DF91CF9108958FEF36
:100250009FEF089560E070E0CB01089580E090E0AA
:100260000895CB010895CF93DF93EC018889998994
:10027000DC01ED91FC910480F581E02D0995892B3D
:10028000A9F388899989DC01ED91FC910680F781B9
:10029000E02DDF91CF910994CF93DF93EC01888912
:1002A0009989DC01ED91FC910480F581E02D09959F
:1002B000892BA9F388899989DC01ED91FC9100844F
:1002C000F185E02DDF91CF910994AF92BF92CF924B
:1002D000DF92EF92FF920F931F93CF93DF9300D0A3
:1002E00000D0CDB7DEB78C015B01C12CD12C7601DB
:1002F000F80180899189DC01ED91FC910680F781FC
:10030000E02D29833A834B835C83099529813A81C7
:100310004B815C818F3F71F0C216D306E406F5066F
:100320004CF4D5018D935D01BFEFCB1ADB0AEB0ACC
:10033000FB0ADECFC701B6010F900F900F900F9010
:10034000DF91CF911F910F91FF90EF90DF90CF90B1
:10035000BF90AF900895DC0150968D919C9151977C
:10036000DC01ED91FC910480F581E02D099480E0A1
:1003700090E0089580E090E0089580E090E0089596
:1003800080E090E008950895CF93DF93C091B0028C
:10039000D091B102E881F9810480F581E02DCE0190
:1003A0000995892BB9F3E881F9810680F781E02D61
:1003B000CE01DF91CF9109941F93CF93DF93182F34
:1003C000C091B002D091B1028A3041F4E881F98144
:1003D0000190F081E02D6DE0CE010995E881F98171
:1003E0000190F081E02D612FCE01099521E030E0F0
:1003F000019711F420E030E0C901DF91CF911F9106
:1004000008950F931F93CF93DF938C01EB016F3F00
:100410008FEF780719F480E090E00FC06A3031F474
:100420006DE0F801808991890E94490B6C2FF801D9
:10043000808991890E94490BCE01DF91CF911F9154
:100440000F9108958F929F92BF92CF92DF92EF9279
:10045000FF920F931F93CF93DF9300D000D0CDB7BF
:10046000DEB78C014B01C12CD12C7601C216D3060C
:10047000E406F50644F5F401B1904F01FAE0BF122D
:100480000EC06DE0F8018089918929833A834B83FE
:100490005C830E94490B5C814B813A8129816B2DE1
:1004A000F8018089918929833A834B835C830E9478
:1004B000490BFFEFCF1ADF0AEF0AFF0A5C814B817D
:1004C0003A812981D3CFCA01B9010F900F900F90C3
:1004D0000F90DF91CF911F910F91FF90EF90DF90E0
:1004E000CF90BF909F908F9008950C94F7130C9429
:1004F000F713089508950C94F713DC01ED91FC9126
:10050000369720813181820F931F0C947B02FB016F
:1005100020813181FC0131832083FB0142815381A1
:10052000F901369720813181FC01E20FF31F5183DD
:100530004083089529E531E0FC013183208323E6DF
:1005400031E0318F208F69E671E00C948702DC0185
:10055000ED91FC91369720813181820F931F0C948D
:100560009A02CF93DF93EC010E949A02CE01DF91B1
:10057000CF910C94F713DC01ED91FC91369720811B
:100580003181820F931F0C94B1020C94F7130895DC
:1005900008950C94F713DC01ED91FC9136972081BE
:1005A0003181820F931F0C94C902FB01208131819C
:1005B000FC0131832083FB0142815381F90136978D
:1005C00020813181FC01E20FF31F518340830895A4
:1005D00021ED31E0FC01318320832BED31E0358BBF
:1005E000248B61EE71E00C94D502DC01ED91FC915D
:1005F000369720813181820F931F0C94E802CF93AC
:10060000DF93EC010E94E802CE01DF91CF910C94C0
:10061000F713DC01ED91FC91369720813181820F37
:10062000931F0C94FF02833081F028F4813099F0FD
:100630008230A1F008958730A9F08830B9F0843075
:10064000D1F4809180008F7D03C0809180008F77EE
:1006500080938000089584B58F7702C084B58F7D24
:1006600084BD08958091B0008F7703C08091B00061
:100670008F7D8093B00008951F93CF93DF93282F31
:1006800030E0F901E458FF4F8491F901E057FF4F42
:10069000D491F901E255FF4FC491CC23C9F0162F34
:1006A00081110E941303EC2FF0E0EE0FFF1FEC55B9
:1006B000FF4FA591B4918FB7F894111105C09C918B
:1006C000ED2FE095E92302C0EC91ED2BEC938FBF69
:1006D000DF91CF911F910895CF93DF9390E0FC01BC
:1006E000E057FF4F2491FC01E255FF4F849188238E
:1006F00061F190E0880F991FFC01E859FF4FC59107
:10070000D491FC01EC55FF4FA591B491611109C042
:100710009FB7F8948881209582238883EC912E23BB
:100720000BC0623061F49FB7F8943881822F8095B6
:1007300083238883EC912E2B2C939FBF06C08FB709
:10074000F894E8812E2B28838FBFDF91CF910895F5
:100750008F929F92AF92BF92CF92DF92EF92FF92D1
:100760006B017C010E948E004B015C01C114D1041D
:10077000E104F104F1F00E948E00DC01CB01881944
:100780009909AA09BB09883E9340A105B10570F3F8
:1007900021E0C21AD108E108F10888EE880E83E052
:1007A000981EA11CB11CC114D104E104F10419F775
:1007B000DDCFFF90EF90DF90CF90BF90AF909F90F4
:1007C0008F9008952FB7F89460912B0270912C02AE
:1007D00080912D0290912E022FBF08951F920F92AB
:1007E0000FB60F9211242F933F938F939F93AF9344
:1007F000BF9380912B0290912C02A0912D02B09179
:100800002E0230912A0223E0230F2D3720F4019687
:10081000A11DB11D05C026E8230F0296A11DB11D23
:1008200020932A0280932B0290932C02A0932D02F6
:10083000B0932E0280912F0290913002A09131024C
:10084000B09132020196A11DB11D80932F029093A9
:100850003002A0933102B0933202BF91AF919F91C9
:100860008F913F912F910F900FBE0F901F90189571
:100870000F931F93CF93DF938C01C62F6170FC0100
:1008800083890E943C03D0E0D595C7956C2F617099
:10089000F80184890E943C03D595C7956C2F61703F
:1008A000F80185890E943C03D595C7956C2F61702E
:1008B000F80186890E943C03F801C28583858F3F39
:1008C00019F094859111C82F61E08C2F0E943C0390
:1008D00060E08C2FDF91CF911F910F910C943C031E
:1008E000EF92FF920F931F93CF93DF93EC01162F9C
:1008F000F42E0A858B858F3F19F09C859111082F66
:1009000089858F3F61F4EE81FF81309719F08C85E6
:10091000099548C08BEF94E00197F1F743C060E080
:100920008B890E946C0360E08C890E946C0360E0FC
:100930008D890E946C0360E08E890E946C0361E0E7
:1009400089850E943C0360E088850E943C0361E049
:10095000802F0E943C038E890E949007E82E60E061
:10096000802F0E943C0361E0802F0E943C0360E0E6
:10097000802F0E943C0381E0E81649F361E08B89F7
:100980000E946C0361E08C890E946C0361E08D8998
:100990000E946C0361E08E890E946C0360E089858F
:1009A0000E943C036F2D88850E943C03612F60717B
:1009B0008B890E943C03612F60728C890E943C03EA
:1009C000612F60748D890E943C03612F60788E894D
:1009D0000E943C0361E0802F0E943C0360E0802F76
:1009E0000E943C03612F61708B890E943C03612F40
:1009F00062708C890E943C03612F64708D890E9413
:100A00003C03612F68708E890E943C0361E0802F57
:100A10000E943C0360E0802FDF91CF911F910F91E6
:100A2000FF90EF900C943C0340E00C9470040F9303
:100A30001F93CF93DF93EC01888D841710F44FEF51
:100A4000480F4F876E87188AFE01E40FF11D818DD4
:100A5000082F00749D85690F8F73680F683214F03A
:100A6000685202C067FD685D062B142F12708C85DA
:100A700090E0212F30E08217930761F06D8D647F45
:100A80006860CE010E9414051C876D8D6860CE01E0
:100A90000E941405602F6068CE01DF91CF911F91F5
:100AA0000F910C9414051F93CF93DF93EC01162F35
:100AB0008D85811103C08889882329F04F856E8533
:100AC000CE010E9417051D3039F01A3029F041E09F
:100AD000612FCE010E947004188A99898E852F8516
:100AE00091110EC08F5F8E871D3041F0082E000CD3
:100AF000990B4F8950E0841795077CF01E8609C03A
:100B000081508E871A3011F087FF07C08F8981507E
:100B10008E872F5F2F8781E0888B2F85022E000C18
:100B2000330B888D90E0281739070CF01F8681E081
:100B300090E0DF91CF911F910895CF93DF93EC0167
:100B40008B858F3FE1F082E08C8761E0CE010E94CF
:100B500014051C8661E0CE010E94140589858F3F33
:100B600041F48E819F81892B21F48BE49DE20197D2
:100B7000F1F740E060E0CE010E9417050FC061E090
:100B8000CE010E94140589858F3F41F48E819F819B
:100B9000892B21F48BE49DE20197F1F71D86DF910B
:100BA000CF9108950895089508950F931F93CF93BB
:100BB000DF93EC01CB01088119817B836A830E945A
:100BC00062139983888320E030E08C819D8128170F
:100BD000390770F4E881F981E20FF31F309729F0AB
:100BE000D801A20FB31F8C9180832F5F3F4FEDCFB1
:100BF000C801DF91CF911F910F910C94F713EF92E1
:100C0000FF920F931F93CF93DF93EC018C819D8113
:100C10008C010F5F1F4F80179107F8F47B012A8129
:100C20003B812017310748F4BC01675F7F4F2617CF
:100C3000370718F4CE010E94D5058C819D8180175D
:100C4000910770F4E881F981E80FF91F309719F0E6
:100C5000D7012C9120830196F2CF0817190710F4C1
:100C60001D830C83DF91CF911F910F91FF90EF9027
:100C700008950F931F93CF93DF93EC018B01FB013A
:100C8000848195819D838C8308969B838A830E94AF
:100C900062139983888320E030E08C819D8128173E
:100CA000390780F4F801A081B181A20FB31FE88158
:100CB000F981E20FF31F309711F08C9180832F5F41
:100CC0003F4FEBCFDF91CF911F910F910895FC0122
:100CD000808191810C94F713FC01918D828D98177E
:100CE00061F0828DDF01A80FB11D5D968C91928D10
:100CF0009F5F9F73928F90E008958FEF9FEF08950D
:100D0000FC01918D828D981731F0828DE80FF11DD5
:100D1000858D90E008958FEF9FEF0895FC01918DF0
:100D2000228D892F90E0805C9F4F821B91098F73E9
:100D30009927089582EB92E00E948E0621E0892B8C
:100D400009F420E0822F0895FC01848DDF01A80FB3
:100D5000B11DA35ABF4F2C91848D90E001968F73E3
:100D60009927848FA689B7892C93A089B1898C9102
:100D700080648C93938D848D981306C00288F389C8
:100D8000E02D80818F7D80830895EF92FF920F93F5
:100D90001F93CF93DF93EC0181E0888F9B8D8C8D27
:100DA000981305C0E889F989808185FD24C0F62E55
:100DB0000B8D10E00F5F1F4F0F731127E02E8C8DEE
:100DC000E8120CC00FB607FCFACFE889F9898081D8
:100DD00085FFF5CFCE010E94A406F1CF8B8DFE01D9
:100DE000E80FF11DE35AFF4FF0820B8FEA89FB8970
:100DF0008081806207C0EE89FF896083E889F98974
:100E000080818064808381E090E0DF91CF911F91A9
:100E10000F91FF90EF900895CF93DF93EC01888DB1
:100E20008823C9F0EA89FB89808185FD05C0A889EE
:100E3000B9898C9186FD0FC00FB607FCF5CF808174
:100E400085FFF2CFA889B9898C9185FFEDCFCE01BE
:100E50000E94A406E7CFDF91CF91089580E090E053
:100E6000892B29F00E949A0681110C9400000895A4
:100E70001F920F920FB60F9211242F933F934F930F
:100E80005F936F937F938F939F93AF93BF93EF93F2
:100E9000FF9382EB92E00E94A406FF91EF91BF9135
:100EA000AF919F918F917F916F915F914F913F9102
:100EB0002F910F900FBE0F901F9018951F920F92B9
:100EC0000FB60F9211242F938F939F93EF93FF935D
:100ED000E091C202F091C3028081E091C802F091DA
:100EE000C90282FD12C090818091CB028F5F8F7307
:100EF0002091CC02821751F0E091CB02F0E0EE5449
:100F0000FD4F958F8093CB0201C08081FF91EF91BF
:100F10009F918F912F910F900FBE0F901F9018955A
:100F2000CF93DF93282F30E0F901E458FF4F8491ED
:100F3000F901E057FF4FD491F901E255FF4FC491F9
:100F4000CC2391F081110E941303EC2FF0E0EE0FFF
:100F5000FF1FEE58FF4FA591B491EC91ED2381E076
:100F600090E021F480E002C080E090E0DF91CF913A
:100F70000895E2EBF2E0A089B18982E08C93A48528
:100F8000B5851C92A685B7858FEC8C93108EA489AD
:100F9000B58986E08C93A289B3898C9180618C930A
:100FA000A289B3898C9188608C93A289B3898C9132
:100FB00080688C930288F389E02D80818F7D808307
:100FC0000895EF92FF920F931F93CF93DF9300D07A
:100FD000CDB7DEB77C01623010F028E001C020E020
:100FE00092E16BE275E7FB013197F1F79150D9F788
:100FF00060E0F70180852A8349830E943C0360E01A
:101000004981842F0E943C0360E0F70180850E94A3
:101010003C0363E0C7010E9438048BE19EE4019722
:10102000F1F763E0C7010E94380403E512E0C8014C
:101030000197F1F763E0C7010E943804C8010197E6
:10104000F1F762E0C7010E943804C8010197F1F787
:101050002A81622F6062C7010E94140584E0F701B3
:10106000858F83858F3F31F440E06CE0C7010E949B
:10107000700412C0F7011485148640E06CE0C701CB
:101080000E94700482E0F701848740E06CE0C701B1
:101090000E947004F7011487F701658D6860C7012D
:1010A0000E941405C7010E949D0582E0F701868F0A
:1010B00066E0C7010F900F90DF91CF911F910F91C4
:1010C000FF90EF900C941405CF92DF92EF92FF9275
:1010D0000F931F93CF93DF936C017A018B01C0E0D4
:1010E000D0E0CE15DF0589F0D8016D918D01D601D4
:1010F000ED91FC910190F081E02DC6010995892BBD
:1011000011F47E0102C02196ECCFC701DF91CF918F
:101110001F910F91FF90EF90DF90CF9008950E9464
:10112000F6121F93CF93DF93EC01142F6F8B6D8317
:10113000488F4C83898D860F8B8F8A8D680F6C8FBB
:101140004A85612FCE010E94E1074B854F3F61F038
:101150001B8E80E48C8F82E08C87612FCE01DF9123
:10116000CF911F910C94E107DF91CF911F910895CA
:101170008F929F92AF92BF92CF92DF92EF92FF92A7
:10118000CF9320910001283021F02F3F09F0F0C1CA
:1011900004C0E2ECF0E0C49172C028E020930001AA
:1011A000E2ECF0E0C491CF3F09F4E2C1C13009F1B3
:1011B000C23009F441C0C11162C014BC15BC24B5D1
:1011C000226024BD25B5216025BDE6EBF0E0E49169
:1011D000F0E0EE0FFF1FEC55FF4F25913491309357
:1011E000AF032093AE03E8E9F0E0E491E093AD03B0
:1011F00048C01092800010928100209181002860E8
:101200002093810020918100216020938100E6EBF2
:10121000F0E0E491F0E0EE0FFF1FEC55FF4F259159
:1012200034913093AC032093AB03E8E9F0E0E49110
:10123000E093AA03C1E025C01092B0001092B10063
:101240002091B00022602093B0002091B100216075
:101250002093B100E6EBF0E0E491F0E0EE0FFF1F29
:10126000EC55FF4F259134913093A9032093A803A7
:10127000E8E9F0E0E491E093A703C2E002C0C7FD13
:1012800077C14C0161E088E00E946C03A12CB12C75
:101290008C2F8D7F09F0A9C060E072E18AE790E0B1
:1012A000A50194010E94ED1169017A01BA01A90119
:1012B00041505109610971094F3F5105610571059F
:1012C00009F008F445C060E472E48FE090E0A50105
:1012D00094010E94ED11BA01A9014150510961091F
:1012E0007109C230E9F44F3F51056105710509F0FC
:1012F00008F43CC160E970ED83E090E0A501940141
:101300000E94ED11BA01A901415051096109710909
:101310004F3F51056105710509F0A8F583E05EC0F6
:101320004F3F510561057105A9F0A0F068E478EE22
:1013300081E090E0A50194010E94ED11BA01A9019C
:101340004150510961097109CC2309F4BEC006C19D
:1013500081E001C082E0CC2389F040C0D701C60102
:101360002AE0B595A795979587952A95D1F7AC0171
:10137000BD01415051096109710985E095B5987F1A
:10138000892B85BD66C068E478EE81E090E0A50118
:1013900094010E94ED11BA01A9014150510961095E
:1013A00071094F3F51056105710509F008F48BC0C3
:1013B00064E274EF80E090E0A50194010E94ED11D9
:1013C000BA01A90141505109610971094F3F510505
:1013D0006105710511F008F097C085E09091B100AA
:1013E000987F892B8093B1002EC060E072E18AE77C
:1013F00090E0A50194010E94ED11BA01A9014150AC
:101400005109610971094115510581E068077105AC
:1014100080F068E478EE81E090E0A50194010E94FC
:10142000ED11BA01A901415051096109710993E017
:1014300001C091E0C13039F480918100887F892B0F
:101440008093810018C0C130B1F0C23049F1C111A0
:101450008FC047BD8FEF9FEFDC018093B80390935F
:10146000B903A093BA03B093BB0380916E0082606E
:1014700080936E007DC050938900409388008FEF69
:101480009FEFDC018093B4039093B503A093B60360
:10149000B093B70380916F00826080936F0068C043
:1014A0004093B3008FEF9FEFDC018093B0039093E4
:1014B000B103A093B203B093B30380917000826034
:1014C0008093700055C084E089CF4F3F510561057E
:1014D0007105C1F0B8F062E17AE780E090E0A50123
:1014E00094010E94ED11BA01A9014150510961090D
:1014F00071094F3F51056105710511F008F02ECFBC
:1015000084E03CCF83E03ACF62E17AE780E090E08C
:10151000A50194010E94ED11BA01A90141505109A0
:10152000610971094F3F510561057105A9F0A0F0EE
:10153000D701C6013AE0B595A795979587953A9555
:10154000D1F7AC01BD014150510961097109CC23AA
:1015500009F413CF87E042CF86E0FDCE4F3F51051F
:101560006105710509F080F684E0F5CE82E036CFA2
:10157000CF91FF90EF90DF90CF90BF90AF909F9072
:101580008F90089590910001981324C0E2ECF0E050
:10159000E4919FEF90930001E130B9F098F0E230D0
:1015A000C9F4909170009D7F9093700091E09093AA
:1015B000B0009091B100987F94609093B100109228
:1015C000B30008C010926E0005C090916F009D7F1F
:1015D00090936F0060E00C943C031F920F920FB643
:1015E0000F9211242F933F934F935F936F937F93A9
:1015F0008F939F93AF93BF93EF93FF938091B0032B
:101600009091B103A091B203B091B303892B8A2BBF
:101610008B2B51F18091A703E091A803F091A903CE
:101620009081892780838091B0039091B103A0912C
:10163000B203B091B303181619061A061B06C4F4B8
:101640008091B0039091B103A091B203B091B30324
:101650000197A109B1098093B0039093B103A093BE
:10166000B203B093B30304C0809100010E94C20A88
:10167000FF91EF91BF91AF919F918F917F916F916A
:101680005F914F913F912F910F900FBE0F901F9040
:101690001895DC01ED91FC910190F081E02D099409
:1016A000CF92DF92EF92FF920F931F93CF93DF932E
:1016B0007C016B019091AE029D7F9093AE02692FE9
:1016C000686081E992E00E94140581E992E00E943D
:1016D0009D05D6011496CD91DC91159741E060E00F
:1016E00081E992E00E941705C131D105E4F08E0135
:1016F000005111090C171D0769F0D601ED91FC91FD
:10170000E00FF11F608181E992E00E94490B0F5FB9
:101710001F4FF0CF40E060E081E992E00E941705A2
:10172000C0E0D0E012C000E010E00C171D0794F7F5
:10173000D601ED91FC91E00FF11F608181E992E00B
:101740000E94490B0F5F1F4FF0CFF70184819581F5
:10175000C817D90760F4D701ED91FC91EC0FFD1F7C
:10176000608181E992E00E94490B2196EECF609161
:10177000AE02862F82608093AE026A6081E992E0B9
:10178000DF91CF911F910F91FF90EF90DF90CF905D
:101790000C9414056115710579F0FB01019000208E
:1017A000E9F73197AF01461B570BDC01ED91FC9136
:1017B0000280F381E02D099480E090E008956EEFBF
:1017C00071E082EB92E00C94CA0BCF92DF92EF9221
:1017D000FF920F931F93CF93DF93CDB7DEB7A197FF
:1017E0000FB6F894DEBF0FBECDBF9C0140E050E0C5
:1017F00019A28E010F5D1F4F8AE0C82ED12CE12C5B
:10180000F12CCA01B901A70196010E94BA15605DC9
:10181000F80162938F01211531054105510589F7C2
:10182000BF0182EB92E00E94CA0B8C010E94DF0B89
:10183000800F911FA1960FB6F894DEBF0FBECDBFEB
:10184000DF91CF911F910F91FF90EF90DF90CF909C
:101850000895CF93DF93CDB7DEB72E970FB6F894E8
:10186000DEBF0FBECDBF789484B5826084BD84B5E1
:10187000816084BD85B5826085BD85B5816085BD8B
:1018800080916E00816080936E0010928100809143
:1018900081008260809381008091810081608093CB
:1018A0008100809180008160809380008091B100F0
:1018B00084608093B1008091B00081608093B0001B
:1018C00080917A00846080937A0080917A008260AF
:1018D00080937A0080917A00816080937A00809171
:1018E0007A00806880937A001092C10010927D0285
:1018F00010927E0210927F021092800210923B02A0
:1019000010923C0210923D0210923E0260ED77E090
:1019100080E090E00E94A80382EB92E090937C022A
:1019200080937B020E94B9070E94E20360933B020E
:1019300070933C0280933D0290933E026FEE71E003
:1019400080917B0290917C020E94CA0B6AE070E059
:1019500080E090E00E94A80381E080934F0242E083
:1019600060E181E992E00E9491086091AE02862FC9
:1019700082608093AE026A6081E992E00E94140561
:1019800061E086E00E946C0361E086E00E943C0317
:1019900061E088E00E946C0360E087E00E946C03D5
:1019A00060E08DE00E946C0385E090E00E9462138D
:1019B0008C01DC011C92909382028093810285E06D
:1019C00090E00E9462135C0188E6F5018083128238
:1019D00011821482138285E090E00E9462137C01E0
:1019E00086E7D7018C9312961C921E92119714963B
:1019F0001C921E92139785E090E00E9462136C0186
:101A000083E7F6018083B282A182F482E38285E0DB
:101A100090E00E9462135C0186E6D5018C931296D9
:101A20001C921E92119714961C921E92139785E099
:101A300090E00E9462137C0185E7F70180831482A5
:101A40001382B282A18285E090E00E9462135C0161
:101A500089E6D5018C931296DC92CE92119714965A
:101A6000FC92EE92139785E090E00E9462137C0155
:101A70008CE6F7018083128211821482138285E042
:101A800090E00E9462134C0182E7D4018C9314967B
:101A90001C921E9213971296FC92EE92119785E07B
:101AA00090E00E9462133C0180E7F3018083128280
:101AB00011821482138285E090E00E9462136C010F
:101AC0008AE6D6018C9312961C921E921197149658
:101AD0001C921E92139785E090E00E9462137C0195
:101AE00087E7F701808372826182D482C38285E0B6
:101AF00090E00E9462136C0181E6D6018C931296ED
:101B00009C928E9211971496FC92EE92139785E018
:101B100090E00E9462137C0185E6F7018083B28227
:101B2000A182D482C38285E090E00E9462135C01AE
:101B300082E6D5018C9312961C921E9211971496F0
:101B40001C921E92139785E090E00E9462136C0134
:101B500088E7F6018083128211821482138285E065
:101B600090E00E9462134C0184E6D4018C9312969B
:101B7000BC92AE9211971496DC92CE92139785E0A8
:101B800090E00E9462133C0183E6F301808312829D
:101B900011821482138285E090E00E9462135C013E
:101BA00089E7D5018C9312961C921E921197149678
:101BB0001C921E92139785E090E00E9462136C01C4
:101BC0008BE6F601808372826182B482A38285E013
:101BD00090E00E9462135C018EE6D5018C93129610
:101BE0009C928E9211971496DC92CE92139785E078
:101BF00090E00E9462133C018AE7F3018083128225
:101C000011821482138285E090E00E9462136C01BD
:101C100081E7D6018C9312961C921E92119714960E
:101C20001C921E92139785E090E00E9462134C0173
:101C300087E6F401808372826182D482C38285E068
:101C400090E00E9462133C018FE6D3018C931296C0
:101C50001C921E92119714961C921E92139785E067
:101C600090E00E9462136C018DE6F60180839282FF
:101C700081827482638285E090E00E946213FC019D
:101C800084E78083B282A182D482C382D801129673
:101C9000FC92EE9211971496FC93EE9313970E9488
:101CA000B907FF24F39488E0C82ED12C9FE3E92ED6
:101CB00020E2B22E3DE2A32E4EE2942E87E00E9457
:101CC000900721E0892B09F420E0809137028823D6
:101CD00009F446C021119EC088E00E94C20A0E94F9
:101CE000E2030E949B142B013C0120E030E44CE114
:101CF00056E46091330270913402809135029091E4
:101D000036020E94FC149B01AC01C301B2010E9487
:101D1000121220E030E040E753E40E9496141816B7
:101D200014F0998201C0A982BE016F5F7F4F8AE8DB
:101D300092E00E94FF05109237020E94E2030E9487
:101D40009B1420E030E44CE156E40E947F12609343
:101D500033027093340280933502909336024CC064
:101D6000211131C00E94E2030E949B142B013C010F
:101D700020E030E44CE156E460913302709134028B
:101D800080913502909136020E94FC149B01AC01B7
:101D9000C301B2010E94121220E030E040E254E49C
:101DA0000E94F11287FD36C080918E0290918F02C1
:101DB000892B81F1B982BE016F5F7F4F8AE892E083
:101DC0000E94FF0519C084E591E00E94B808F092D6
:101DD00037020E94E2030E949B1420E030E44CE1B1
:101DE00056E40E947F126093330270933402809312
:101DF0003502909336020EC020918E0230918F02F0
:101E0000E0918A02F0918B02E20FF31F31978081FB
:101E10008F7DA9F480918E0290918F02843091057C
:101E200009F4D8C0E0918A02F0918B028E0F9F1FB7
:101E3000FC0131978081803209F05DC0CBC0253034
:101E4000310540F761E072E082EB92E00E94CA0B3C
:101E5000E0918A02F0918B0280918E0290918F0224
:101E6000E80FF91F3197608182EB92E00E94490BE5
:101E70000E94DF0B63E872E0CE0101960E943906F2
:101E80006AE872E0CE0108960E943906BE016F5FD3
:101E90007F4FCE0108960E94500BCE0108960E94FB
:101EA0006706CE0101960E9467066FE072E082EB42
:101EB00092E00E94CA0B00E010E080918E029091A7
:101EC0008F020817190770F4E0918A02F0918B02D3
:101ED000E00FF11F608182EB92E00E94490B0F5FDF
:101EE0001F4FEBCF0E94DF0B80918E0290918F02EB
:101EF0000E94E50B09C08DE00E94900720913802F6
:101F0000892B39F1222349F06AE070E080E090E00B
:101F10000E94A8030E942E07D1CE20918702309103
:101F20008802C90101978217930720F490938802D1
:101F300080938702F092380282E390E00E94B80812
:101F40006CE172E082EB92E00E94CA0B00E010E0CC
:101F500008C02223C9F21092380288E00E94C20A07
:101F6000D3CF80918702909188020817190770F4E7
:101F7000E0918302F0918402E00FF11F608182EB17
:101F800092E00E94490B0F5F1F4FEBCF0E94DF0BC7
:101F900080918702909188020E94E50B63E872E0CD
:101FA000CE0101960E9439066AE872E0CE010896D9
:101FB0000E943906BE016F5F7F4FCE0108960E94D6
:101FC000500BCE0108960E946706CE0101960E9432
:101FD00067069ACF6AE872E0CE0101960E94390640
:101FE0000091810210918202612C712C8D819E8161
:101FF0006816790690F5E981FA81E60DF71D808172
:102000008D32A9F08E3229F5F80181819281892BD8
:1020100041F4E886BE01685F7F4F83E892E00E944A
:10202000FF05D80111960D911C91129712C0F8016D
:1020300083819481892B41F4E886BE01685F7F4FDC
:1020400083E892E00E94FF05D80113960D911C9140
:102050001497BFEF6B1A7B0AC9CFB80183E892E0EF
:102060000E94FF05CE0101960E9467066CE172E0B6
:1020700082EB92E00E94CA0B00E010E080918702A0
:10208000909188020817190770F4E0918302F0918B
:102090008402E00FF11F608182EB92E00E94490B05
:1020A0000F5F1F4FEBCF0E94DF0B80918702909153
:1020B00088020E94E50BDC82CB821E821D8288E0B2
:1020C00090E00E9462139A83898380918E0290919E
:1020D0008F022D813E818217930738F18D819E8179
:1020E00020918E0230918F028217930720F59093F2
:1020F0008F0280938E021FC0A981BA81A80FB91FD9
:10210000E0918A02F0918B02E80FF91F309711F0ED
:102110002C91208320918E0230918F022F5F3F4FB0
:1021200030938F0220938E0201962D813E8182177B
:10213000930710F3D3CFCE0101960E9467062ECFEE
:1021400083E892E00E9467068AE892E00E946706B0
:102150008FE493E00E949A028DE793E00C94E802EA
:102160000F931F93CF93DF93A2EBB2E013961C92D1
:102170001E92129748EE53E060E070E014964D9383
:102180005D936D937C93179783E391E011969C93F5
:102190008E9385EC90E01D969C938E931C9784EC17
:1021A00090E01F969C938E931E9780EC90E0519642
:1021B0009C938E93509781EC90E053969C938E93D2
:1021C000529782EC90E055969C938E93549786ECB0
:1021D00090E057969C938E93569759961C925997D8
:1021E0005A961C925A975B961C925B975C961C922F
:1021F0005C97E9E3F2E01682178210861186128658
:1022000013861486158616861786108A118A128AF6
:10221000138A148A158AEDE7F3E0C1E2D0E0D08F8B
:10222000C78B118E128E138E46E050E060E070E096
:10223000448F558F668F778F10A211A212A213A21E
:1022400020E224A316A215A211A68FE793E090A77F
:1022500087A381ED91E0918380838BED91E0958B55
:10226000848B168215821086178212861186148638
:10227000138616861586108A17868FEA91E0938357
:102280008283B38BA28B30E1318BEFE4F3E0D48F08
:10229000C38F158E168E178E40A351A362A373A30E
:1022A00014A215A216A217A220A712A611A615A65F
:1022B000128213821482158225E533E034A723A706
:1022C00029E531E03183208323E631E0318F208F0F
:1022D000128611861486138616861586108A17862E
:1022E000128A118A148A138A97838683B78BA68BE6
:1022F00088E0858BB093B102A093B00264EC71E0EA
:102300008CED91E00E94FB12C1E9D2E01B821A829F
:102310008BEE91E0998388838CE088871FEF198783
:102320001F821E828BE08A871B871C861D861E8665
:102330001F86188A198A85E08B8B84E08C8B83E05A
:102340008D8B82E08E8B61E085E00E946C0361E002
:1023500084E00E946C0361E083E00E946C0361E012
:1023600082E00E946C03198E80E48A8F84E18B8F57
:1023700084E58C8F61E088850E946C0361E08A852A
:102380000E946C0341E064E1CE010E9491081F822B
:102390001E821987CAE8D2E008E010E01B830A8396
:1023A0001D821C8288E090E00E94621399838883DA
:1023B000C3E8D2E01B830A831D821C8288E090E080
:1023C0000E94621399838883109282021092810284
:1023D000DF91CF911F910F910895052E97FB1EF469
:1023E00000940E94041257FD07D00E94BA1507FC02
:1023F00003D04EF40C9404125095409530952195DD
:102400003F4F4F4F5F4F0895909580957095619520
:102410007F4F8F4F9F4F0895EE0FFF1F0590F49150
:10242000E02D09945058BB27AA270E942A120C9429
:1024300080150E94721538F00E94791520F039F449
:102440009F3F19F426F40C946F150EF4E095E7FB0A
:102450000C946915E92F0E94911558F3BA17620779
:1024600073078407950720F079F4A6F50C94B3154B
:102470000EF4E0950B2EBA2FA02D0B01B90190019F
:102480000C01CA01A0011124FF27591B99F0593FE3
:1024900050F4503E68F11A16F040A22F232F342F2B
:1024A0004427585FF3CF469537952795A795F04079
:1024B0005395C9F77EF41F16BA0B620B730B840B8E
:1024C000BAF09150A1F0FF0FBB1F661F771F881F46
:1024D000C2F70EC0BA0F621F731F841F48F487959E
:1024E00077956795B795F7959E3F08F0B0CF939590
:1024F000880F08F09927EE0F9795879508950E9409
:1025000093120C9480150E94791558F00E94721550
:1025100040F029F45F3F29F00C94691551110C9497
:10252000B4150C946F150E94911568F39923B1F3BB
:10253000552391F3951B550BBB27AA2762177307E9
:10254000840738F09F5F5F4F220F331F441FAA1F7D
:10255000A9F335D00E2E3AF0E0E832D09150504039
:10256000E695001CCAF72BD0FE2F29D0660F771FE7
:10257000881FBB1F261737074807AB07B0E809F0CD
:10258000BB0B802DBF01FF2793585F4F3AF09E3F52
:10259000510578F00C9469150C94B4155F3FE4F381
:1025A000983ED4F3869577956795B795F7959F5F95
:1025B000C9F7880F911D9695879597F90895E1E0E1
:1025C000660F771F881FBB1F621773078407BA0740
:1025D00020F0621B730B840BBA0BEE1F88F7E0959B
:1025E00008950E94D81408F48FEF089581E090E0D8
:1025F000F8940C94DC150F931F93CF93DF930097FF
:1026000031F46115710519F480E090E03AC08B0156
:10261000EC016EE070E081E090E00E944613FC0166
:10262000892B91F380E883830115110571F01387DD
:10263000028781E883838091BC039091BD03892B3D
:1026400021F4F093BD03E093BC032097C9F0D18738
:10265000C0878381826083838091BE039091BF0392
:10266000892B71F4F093BF03E093BE038091C00304
:102670009091C103892B21F4F093C103E093C0032F
:10268000CF01DF91CF911F910F9108950F931F9369
:10269000CF93DF93869F8001879F100D969F100D2B
:1026A0001124C8010E946213EC01009729F0A801CF
:1026B00060E070E00E948F14CE01DF91CF911F91F6
:1026C0000F910895CF93DF938230910510F482E04B
:1026D00090E0E091C403F091C50320E030E0C0E059
:1026E000D0E0309711F14081518148175907C0F06F
:1026F0004817590761F482819381209719F09B83D1
:102700008A832BC09093C5038093C40326C02115F0
:10271000310519F04217530718F49A01BE01DF0181
:10272000EF010280F381E02DDCCF2115310509F1A5
:10273000281B390B2430310590F412968D919C9111
:1027400013976115710521F0FB019383828304C007
:102750009093C5038093C403FD01329644C0FD01EC
:10276000E20FF31F81939193225031092D933C93F3
:102770003AC02091C2033091C303232B41F420912E
:102780000301309104013093C3032093C2032091CD
:102790000101309102012115310541F42DB73EB7F9
:1027A0004091050150910601241B350BE091C203B5
:1027B000F091C303E217F307A0F42E1B3F0B281779
:1027C000390778F0AC014E5F5F4F2417350748F0AA
:1027D0004E0F5F1F5093C3034093C20381939193A5
:1027E00002C0E0E0F0E0CF01DF91CF9108950F93B8
:1027F0001F93CF93DF93009709F48CC0FC013297AD
:10280000138212820091C4031091C50301151105B2
:1028100081F420813181820F931F2091C203309176
:10282000C3032817390779F5F093C303E093C20374
:1028300071C0D80140E050E0AE17BF0750F41296C7
:102840002D913C911397AD012115310509F1D90165
:10285000F3CF9D01DA013383228360817181860F7A
:10286000971F8217930769F4EC0128813981260F9D
:10287000371F2E5F3F4F318320838A819B81938353
:102880008283452B29F4F093C503E093C40342C02F
:102890001396FC93EE931297ED01499159919E0185
:1028A000240F351FE217F30771F480819181840FA3
:1028B000951F029611969C938E9382819381139615
:1028C0009C938E931297E0E0F0E0D80112968D91E0
:1028D0009C911397009719F0F8018C01F6CF8D9118
:1028E0009C9198012E5F3F4F820F931F2091C2034E
:1028F0003091C3032817390769F4309729F41092EF
:10290000C5031092C40302C0138212821093C30342
:102910000093C203DF91CF911F910F910895DC01C5
:1029200001C06D9341505040E0F708950E94D814C3
:1029300008F481E00895E89409C097FB3EF490956F
:102940008095709561957F4F8F4F9F4F9923A9F088
:10295000F92F96E9BB279395F69587957795679517
:10296000B795F111F8CFFAF4BB0F11F460FF1BC05B
:102970006F5F7F4F8F4F9F4F16C0882311F096E9EE
:1029800011C0772321F09EE8872F762F05C066239C
:1029900071F096E8862F70E060E02AF09A95660F55
:1029A000771F881FDAF7880F9695879597F908950E
:1029B000990F0008550FAA0BE0E8FEEF1616170650
:1029C000E807F907C0F012161306E407F50798F0B8
:1029D000621B730B840B950B39F40A2661F0232BD1
:1029E000242B252B21F408950A2609F4A140A6954D
:1029F0008FEF811D811D08950E940F150C94801585
:102A00000E94721538F00E94791520F0952311F07C
:102A10000C9469150C946F1511240C94B4150E9434
:102A2000911570F3959FC1F3950F50E0551F629F6C
:102A3000F001729FBB27F00DB11D639FAA27F00D17
:102A4000B11DAA1F649F6627B00DA11D661F829F3E
:102A50002227B00DA11D621F739FB00DA11D621F23
:102A6000839FA00D611D221F749F3327A00D611D40
:102A7000231F849F600D211D822F762F6A2F112422
:102A80009F5750409AF0F1F088234AF0EE0FFF1F55
:102A9000BB1F661F771F881F91505040A9F79E3FAC
:102AA000510580F00C9469150C94B4155F3FE4F364
:102AB000983ED4F3869577956795B795F795E79502
:102AC0009F5FC1F7FE2B880F911D9695879597F90B
:102AD000089597F99F6780E870E060E008959FEFA0
:102AE00080EC089500240A941616170618060906A5
:102AF000089500240A941216130614060506089574
:102B0000092E0394000C11F4882352F0BB0F40F4FB
:102B1000BF2B11F460FF04C06F5F7F4F8F4F9F4F3B
:102B2000089557FD9058440F551F59F05F3F71F0BD
:102B30004795880F97FB991F61F09F3F79F0879524
:102B40000895121613061406551FF2CF4695F1DFAD
:102B500008C0161617061806991FF1CF869571053D
:102B6000610508940895E894BB2766277727CB0171
:102B700097F90895A1E21A2EAA1BBB1BFD010DC0F7
:102B8000AA1FBB1FEE1FFF1FA217B307E407F5071D
:102B900020F0A21BB30BE40BF50B661F771F881FF9
:102BA000991F1A9469F760957095809590959B018F
:102BB000AC01BD01CF01089510E0C3E6D0E004C030
:102BC000FE010E940C122196C436D107C9F7F89471
:022BD000FFCF35
:102BD200FF0000C603800018000000000000000093
:102BE20000E8FFE8FF000000000000140000000001
:102BF2000000000000ECFFECFF00000000000000FD
:102C0200000000C50664088E066C0680060C0706E6
:102C1200000000000079027B02FAFFFAFF00007A4E
:102C2200027D021800000000009A02B102E8FFE8EB
:102C3200FF0000A702BB0259010D01170163010049
:102C4200000000D2057702C301C001BD01BA01B77D
:102C5200012E012A01270111013101B500B3000241
:102C62000000000000C702C902FEFFFEFF0000C80C
:102C720002CB0200000000D405750200000000D360
:102C820005C502C301C001BD01BA01B701AB0165AF
:102C9200014C013301310122020102140000000043
:102CA20000E802FF02ECFFECFF0000F5020903D18D
:102CB2000121012B01DB01000000005305640856CD
:102CC2004D4450565F317C315F564D4450560D0A8B
:102CD20000446F74206F7220646173683A20004D63
:102CE2006F72736520636F64653A20005472616E7F
:0A2CF200736C6174696F6E3A200084
:00000001FF
