:100000000C9464000C948C000C948C000C948C0068
:100010000C948C000C948C000C948C000C9479043F
:100020000C948C000C948C000C948C000C948C0020
:100030000C948C000C948C000C948C000C948C0010
:100040000C9456090C948C000C9405010C94DF0060
:100050000C948C000C948C000C948C000C948C00F0
:100060000C948C000C948C00010204081020408039
:100070000102040810200102040810200000000002
:10008000250028002B0004040404040404040202D4
:100090000202020203030303030302000000002420
:1000A0000027002A0000000000230026002900008D
:1000B0000000080002010000030407000000000027
:1000C00000000000430F350F11241FBECFEFD8E012
:1000D000DEBFCDBF12E0A0E0B1E0E6E8F8E202C08A
:1000E00005900D92AA31B107D9F723E0AAE1B2E059
:1000F00001C01D92AA3BB207E1F710E0C3E6D0E0D1
:1001000004C02197FE010E946610C236D107C9F7CC
:100110000E943A0A0C9436140C9400008DE992E087
:100120000E945E0521E0892B09F420E0822F0895CA
:10013000EF92FF920F931F93CF93DF93EC0181E037
:10014000888F9B8D8C8D981305C0E889F9898081F3
:1001500085FD24C0F62E0B8D10E00F5F1F4F0F732F
:100160001127E02E8C8DE8120CC00FB607FCFACFD9
:10017000E889F989808185FFF5CFCE010E942208A8
:10018000F1CF8B8DFE01E80FF11DE35AFF4FF08296
:100190000B8FEA89FB898081806207C0EE89FF8925
:1001A0006083E889F98980818064808381E090E0C0
:1001B000DF91CF911F910F91FF90EF9008951F92C3
:1001C0000F920FB60F9211242F933F934F935F938B
:1001D0006F937F938F939F93AF93BF93EF93FF930F
:1001E0008DE992E00E942208FF91EF91BF91AF91BB
:1001F0009F918F917F916F915F914F913F912F913F
:100200000F900FBE0F901F9018951F920F920FB670
:100210000F9211242F938F939F93EF93FF93E0916D
:10022000AD02F091AE028081E091B302F091B40290
:1002300082FD12C090818091B6028F5F8F732091F2
:10024000B702821751F0E091B602F0E0E356FD4F9D
:10025000958F8093B60201C08081FF91EF919F91AD
:100260008F912F910F900FBE0F901F901895CF92E6
:10027000DF92EF92FF920F931F93CF93DF936C0166
:100280007A018B01C0E0D0E0CE15DF0589F0D801FE
:100290006D918D01D601ED91FC910190F081E02DE1
:1002A000C6010995892B11F47E0102C02196ECCF7D
:1002B000C701DF91CF911F910F91FF90EF90DF90D9
:1002C000CF9008950E9450118F929F92AF92BF924B
:1002D000CF92DF92EF92FF92CF93209102012830CC
:1002E00021F02F3F09F0F0C104C0EAE9F0E0C49129
:1002F00072C028E020930201EAE9F0E0C491CF3F08
:1003000009F4E2C1C13009F1C23009F441C0C111A0
:1003100062C014BC15BC24B5226024BD25B5216083
:1003200025BDEEE8F0E0E491F0E0EE0FFF1FE458A9
:10033000FF4F259134913093420320934103E0E72E
:10034000F0E0E491E093400348C0109280001092E6
:1003500081002091810028602093810020918100FC
:10036000216020938100EEE8F0E0E491F0E0EE0FF0
:10037000FF1FE458FF4F2591349130933F032093A2
:100380003E03E0E7F0E0E491E0933D03C1E025C0E7
:100390001092B0001092B1002091B0002260209322
:1003A000B0002091B10021602093B100EEE8F0E0B0
:1003B000E491F0E0EE0FFF1FE458FF4F25913491D8
:1003C00030933C0320933B03E0E7F0E0E491E093BB
:1003D0003A03C2E002C0C7FD77C14C0161E088E08A
:1003E0000E94D408A12CB12C8C2F8D7F09F0A9C0BC
:1003F00060E072E18AE790E0A50194010E94471055
:1004000069017A01BA01A9014150510961097109D3
:100410004F3F51056105710509F008F445C060E4DE
:1004200072E48FE090E0A50194010E944710BA01A8
:10043000A9014150510961097109C230E9F44F3FE6
:1004400051056105710509F008F43CC160E970EDE2
:1004500083E090E0A50194010E944710BA01A90130
:1004600041505109610971094F3F510561057105FD
:1004700009F0A8F583E05EC04F3F510561057105A5
:10048000A9F0A0F068E478EE81E090E0A501940185
:100490000E944710BA01A90141505109610971092F
:1004A000CC2309F4BEC006C181E001C082E0CC23A8
:1004B00089F040C0D701C6012AE0B595A795979568
:1004C00087952A95D1F7AC01BD01415051096109C9
:1004D000710985E095B5987F892B85BD66C068E474
:1004E00078EE81E090E0A50194010E944710BA01E6
:1004F000A90141505109610971094F3F5105610539
:10050000710509F008F48BC064E274EF80E090E0BC
:10051000A50194010E944710BA01A9014150510957
:10052000610971094F3F51056105710511F008F02E
:1005300097C085E09091B100987F892B8093B1009E
:100540002EC060E072E18AE790E0A50194010E946C
:100550004710BA01A90141505109610971094115BA
:10056000510581E06807710580F068E478EE81E06C
:1005700090E0A50194010E944710BA01A9014150E1
:1005800051096109710993E001C091E0C13039F46A
:1005900080918100887F892B8093810018C0C130B1
:1005A000B1F0C23049F1C1118FC047BD8FEF9FEF4D
:1005B000DC0180934B0390934C03A0934D03B093C5
:1005C0004E0380916E00826080936E007DC05093D8
:1005D0008900409388008FEF9FEFDC0180934703F1
:1005E00090934803A0934903B0934A0380916F000E
:1005F000826080936F0068C04093B3008FEF9FEFDD
:10060000DC018093430390934403A0934503B0938C
:1006100046038091700082608093700055C084E032
:1006200089CF4F3F510561057105C1F0B8F062E116
:100630007AE780E090E0A50194010E944710BA019A
:10064000A90141505109610971094F3F51056105E7
:10065000710511F008F02ECF84E03CCF83E03ACF53
:1006600062E17AE780E090E0A50194010E944710E2
:10067000BA01A90141505109610971094F3F510562
:1006800061057105A9F0A0F0D701C6013AE0B59562
:10069000A795979587953A95D1F7AC01BD01415043
:1006A000510961097109CC2309F413CF87E042CFC6
:1006B00086E0FDCE4F3F51056105710509F080F6DA
:1006C00084E0F5CE82E036CFCF91FF90EF90DF90BF
:1006D000CF90BF90AF909F908F900895643008F0B6
:1006E00063E090919602691710F06FEF690FE62FA3
:1006F000F0E0ED57FD4F9489682F690F606883E83B
:1007000092E00C94290AEDE9F2E0A089B18982E037
:100710008C93A485B5851C92A685B7858FEC8C93A8
:10072000108EA489B58986E08C93A289B3898C91B7
:1007300080618C93A289B3898C9188608C93A28903
:10074000B3898C9180688C930288F389E02D808135
:100750008F7D80830895EF92FF920F931F93CF9325
:10076000DF93EC01623018F08F8588608F876B8B88
:100770001C8A80E48D8B80E18E8B80E58F8B61E01D
:100780008C810E94D4088D818F3F19F061E00E9416
:10079000D40861E08E810E94D4087E0187E0E80ED3
:1007A000F11C00E010E08F8584FD03C084E090E040
:1007B00002C088E090E0081719074CF461E0F701E7
:1007C00081917F010E94D4080F5F1F4FECCF8BE314
:1007D0009DE00197F1F760E08C810E948E0860E057
:1007E0008E810E948E088D818F3F19F060E00E94FB
:1007F0008E086F8564FD1DC063E0CE010E94A309D1
:100800000BE416E4C8010197F1F763E0CE010E9402
:10081000A309C8010197F1F763E0CE010E94A30983
:1008200083E592E00197F1F762E0CE010E94A3090F
:1008300016C06062CE010E94290A8BE496E40197FB
:10084000F1F76F856062CE010E94290A83E592E08C
:100850000197F1F76F856062CE010E94290A6F85CA
:100860006062CE010E94290A84E0888B6CE0CE0190
:100870000E94290A61E0CE010E94290A8BE39FE1D0
:100880000197F1F782E0898B66E0CE01DF91CF918D
:100890001F910F91FF90EF900C94290A9091020103
:1008A000981324C0EAE9F0E0E4919FEF90930201ED
:1008B000E130B9F098F0E230C9F4909170009D7F7A
:1008C0009093700091E09093B0009091B100987F68
:1008D00094609093B1001092B30008C010926E0023
:1008E00005C090916F009D7F90936F0060E00C9425
:1008F0008E081F920F920FB60F9211242F933F93E1
:100900004F935F936F937F938F939F93AF93BF9317
:10091000EF93FF938091430390914403A09145038B
:10092000B0914603892B8A2B8B2B51F180913A038E
:10093000E0913B03F0913C03908189278083809173
:10094000430390914403A0914503B09146031816C8
:1009500019061A061B06C4F48091430390914403C0
:10096000A0914503B09146030197A109B109809375
:10097000430390934403A0934503B093460304C0FC
:10098000809102010E944E04FF91EF91BF91AF91BF
:100990009F918F917F916F915F914F913F912F9197
:1009A0000F900FBE0F901F901895DC01ED91FC91F8
:1009B0000190F081E02D09946115710579F0FB013A
:1009C00001900020E9F73197AF01461B570BDC017E
:1009D000ED91FC910280F381E02D099480E090E09C
:1009E00008954F925F926F927F92EF92FF920F93D2
:1009F0001F93CF93DF93CDB7DEB7A1970FB6F894CF
:100A0000DEBF0FBECDBF7C01FA01CB0119A222309F
:100A100008F42AE08E010F5D1F4F422E512C612CED
:100A2000712CBF01A30192010E941414F901CA01A3
:100A3000015011096A3014F4605D01C0695CD8018D
:100A40006C93232B242B252B61F7B801C7010E943F
:100A5000DC04A1960FB6F894DEBF0FBECDBFDF91C8
:100A6000CF911F910F91FF90EF907F906F905F90CB
:100A70004F9008950C94DC04FC01918D828D9817A1
:100A800061F0828DDF01A80FB11D5D968C91928D72
:100A90009F5F9F73928F90E008958FEF9FEF08956F
:100AA000FC01918D828D981731F0828DE80FF11D38
:100AB000858D90E008958FEF9FEF0895FC01918D53
:100AC000228D892F90E0805C9F4F821B91098F734C
:100AD0009927089580E090E0892B29F00E948E00EC
:100AE00081110C9400000895833081F028F4813046
:100AF00099F08230A1F008958730A9F08830B9F0DC
:100B00008430D1F4809180008F7D03C0809180007B
:100B10008F7780938000089584B58F7702C084B565
:100B20008F7D84BD08958091B0008F7703C0809140
:100B3000B0008F7D8093B00008953FB7F894809106
:100B4000AC039091AD03A091AE03B091AF0326B575
:100B5000A89B05C02F3F19F00196A11DB11D3FBFF5
:100B6000BA2FA92F982F8827820F911DA11DB11D83
:100B7000BC01CD0142E0660F771F881F991F4A957F
:100B8000D1F70895CB0108957F928F929F92AF92F3
:100B9000BF92CF92DF92EF92FF920F931F93CF936A
:100BA000DF93EC0149015A018B01C12CD12C760154
:100BB000C814D904EA04FB0484F5F80171908F018C
:100BC0008F8580FF0BC0E881F9810084F185E02DDD
:100BD00020E144E060E070E0CE010995EB85FC8502
:100BE0008D859E85E817F90738F470828B859C8582
:100BF00001969C878B870BC0E881F981672D70E097
:100C0000028CF38DE02DCE010995019649F02FEF6E
:100C1000C21AD20AE20AF20ACBCFB401C50102C05D
:100C2000B601C701DF91CF911F910F91FF90EF9017
:100C3000DF90CF90BF90AF909F908F907F9008955E
:100C4000CF93DF93EC01E881F9810288F389E02DED
:100C500009958F3F2FEF920731F02D813E812F5F55
:100C60003F4F3E832D83DF91CF9108958FEF9FEF0C
:100C7000089560E070E0CB01089580E090E0089571
:100C8000CB010895CF93DF93EC0188899989DC012A
:100C9000ED91FC910480F581E02D0995892BA9F354
:100CA00088899989DC01ED91FC910680F781E02D1E
:100CB000DF91CF910994CF93DF93EC0188899989D3
:100CC000DC01ED91FC910480F581E02D0995892BE3
:100CD000A9F388899989DC01ED91FC910084F18563
:100CE000E02DDF91CF910994AF92BF92CF92DF9226
:100CF000EF92FF920F931F93CF93DF9300D000D01A
:100D0000CDB7DEB78C015B01C12CD12C7601F80187
:100D100080899189DC01ED91FC910680F781E02DBD
:100D200029833A834B835C83099529813A814B81DE
:100D30005C818F3F71F0C216D306E406F5064CF4D1
:100D4000D5018D935D01BFEFCB1ADB0AEB0AFB0ADD
:100D5000DECFC701B6010F900F900F900F90DF917B
:100D6000CF911F910F91FF90EF90DF90CF90BF90A8
:100D7000AF900895DC0150968D919C915197DC01C4
:100D8000ED91FC910480F581E02D099480E090E0E4
:100D9000089580E090E0089580E090E0089580E07C
:100DA00090E008950895CF93DF93C0919B02D09176
:100DB0009C02E881F9810480F581E02DCE0109953E
:100DC000892BB9F3E881F9810680F781E02DCE0106
:100DD000DF91CF9109941F93CF93DF93182FC09188
:100DE0009B02D0919C028A3041F4E881F981019004
:100DF000F081E02D6DE0CE010995E881F981019047
:100E0000F081E02D612FCE01099521E030E00197BE
:100E100011F420E030E0C901DF91CF911F910895D6
:100E20000F931F93CF93DF938C01EB016F3F8FEFF5
:100E3000780719F480E090E00FC06A3031F46DE07B
:100E4000F801808991890E94D5046C2FF80180896E
:100E500091890E94D504CE01DF91CF911F910F910E
:100E600008958F929F92BF92CF92DF92EF92FF925E
:100E70000F931F93CF93DF9300D000D0CDB7DEB791
:100E80008C014B01C12CD12C7601C216D306E4068D
:100E9000F50644F5F401B1904F01FAE0BF120EC01F
:100EA0006DE0F8018089918929833A834B835C83C3
:100EB0000E94D5045C814B813A8129816B2DF80118
:100EC0008089918929833A834B835C830E94D5046E
:100ED000FFEFCF1ADF0AEF0AFF0A5C814B813A81EC
:100EE0002981D3CFCA01B9010F900F900F900F90B5
:100EF000DF91CF911F910F91FF90EF90DF90CF90F6
:100F0000BF909F908F9008950C945112089508956A
:100F10000C945112DC01ED91FC91369720813181C6
:100F2000820F931F0C948807FB0120813181FC0103
:100F300031832083FB0142815381F901369720815F
:100F40003181FC01E20FF31F5183408308952BE5AB
:100F500031E0FC013183208325E631E0318F208FA1
:100F60006BE671E00C949407DC01ED91FC913697EF
:100F700020813181820F931F0C94A707CF93DF93B9
:100F8000EC010E94A707CE01DF91CF910C94511282
:100F9000DC01ED91FC91369720813181820F931F06
:100FA0000C94BE070C945112089508950C9451129C
:100FB000DC01ED91FC91369720813181820F931FE6
:100FC0000C94D607FB0120813181FC013183208301
:100FD000FB0142815381F901369720813181FC0167
:100FE000E20FF31F51834083089523ED31E0FC01AC
:100FF000318320832DED31E0358B248B63EE71E05E
:101000000C94E207DC01ED91FC913697208131814F
:10101000820F931F0C94F507CF93DF93EC010E948E
:10102000F507CE01DF91CF910C945112DC01ED91C7
:10103000FC91369720813181820F931F0C940C080C
:101040000C945112FC01848DDF01A80FB11DA35A2D
:10105000BF4F2C91848D90E001968F739927848FD8
:10106000A689B7892C93A089B1898C9180648C93CF
:10107000938D848D981306C00288F389E02D8081BA
:101080008F7D80830895CF93DF93EC01888D882333
:10109000C9F0EA89FB89808185FD05C0A889B989E5
:1010A0008C9186FD0FC00FB607FCF5CF808185FFC0
:1010B000F2CFA889B9898C9185FFEDCFCE010E942E
:1010C0002208E7CFDF91CF910895CF93DF93282FA8
:1010D00030E0F901E155FF4F8491F901E859FF4FE4
:1010E000D491F901EA57FF4FC491CC2391F08111BB
:1010F0000E947405EC2FF0E0EE0FFF1FEB55FF4F41
:10110000A591B491EC91ED2381E090E021F480E091
:1011100002C080E090E0DF91CF9108951F93CF93BC
:10112000DF93282F30E0F901E155FF4F8491F90159
:10113000E859FF4FD491F901EA57FF4FC491CC23EE
:10114000C9F0162F81110E947405EC2FF0E0EE0F0C
:10115000FF1FE458FF4FA591B4918FB7F894111178
:1011600005C09C91ED2FE095E92302C0EC91ED2B99
:10117000EC938FBFDF91CF911F910895CF93DF93B1
:10118000EC0160E08E810E948E0861E08E810E94F9
:101190008E0860E08E810E948E088BE891E00197B6
:1011A000F1F7DF91CF910895CF93DF9390E0FC01A9
:1011B000E859FF4F2491FC01EA57FF4F849188239F
:1011C00061F190E0880F991FFC01E556FF4FC59132
:1011D000D491FC01E458FF4FA591B491611109C06D
:1011E0009FB7F8948881209582238883EC912E23E1
:1011F0000BC0623061F49FB7F8943881822F8095DC
:1012000083238883EC912E2B2C939FBF06C08FB72E
:10121000F894E8812E2B28838FBFDF91CF9108951A
:101220008F929F92AF92BF92CF92DF92EF92FF92F6
:101230006B017C010E949D054B015C01C114D1042E
:10124000E104F104F1F00E949D05DC01CB01881955
:101250009909AA09BB09883E9340A105B10570F31D
:1012600021E0C21AD108E108F10888EE880E83E077
:10127000981EA11CB11CC114D104E104F10419F79A
:10128000DDCFFF90EF90DF90CF90BF90AF909F9019
:101290008F9008952FB7F8946091A8037091A903D7
:1012A0008091AA039091AB032FBF08951F920F92D4
:1012B0000FB60F9211242F933F938F939F93AF9369
:1012C000BF938091A8039091A903A091AA03B09124
:1012D000AB033091A70323E0230F2D3720F40196B1
:1012E000A11DB11D05C026E8230F0296A11DB11D49
:1012F0002093A7038093A8039093A903A093AA0324
:10130000B093AB038091AC039091AD03A091AE0379
:10131000B091AF030196A11DB11D8093AC039093D2
:10132000AD03A093AE03B093AF03BF91AF919F9174
:101330008F913F912F910F900FBE0F901F90189596
:10134000089508950895CF92DF92EF92FF920F9340
:101350001F93CF93DF937C016C0187E0C80ED11CF3
:10136000C0E0D0E0062F10E0B8010C2E02C0759549
:1013700067950A94E2F76170F60181916F010E940E
:101380008E082196C430D10579F7C701DF91CF913E
:101390001F910F91FF90EF90DF90CF900C94BE08BB
:1013A000CF92DF92EF92FF920F931F93CF93DF9331
:1013B000EC01F62E642F8C810E948E088D818F3F68
:1013C00019F060E00E948E088F850F2D10E084FFD9
:1013D00025C06E0187E0C80ED11CE12CF12CB801AC
:1013E0000E2C02C0759567950A94E2F76170F601BC
:1013F00081916F010E948E08FFEFEF1AFF0A88E0CB
:10140000E816F10461F7CE01DF91CF911F910F91A2
:10141000FF90EF90DF90CF900C94BE08B80184E06D
:10142000759567958A95E1F7CE010E94A3096F2D06
:10143000CE01DF91CF911F910F91FF90EF90DF9040
:10144000CF900C94A30941E00E94D00981E090E084
:10145000089540E00C94D009809100019091010121
:101460004097EAE1F2E0918380831382128260E088
:101470000C946E03789484B5826084BD84B58160D9
:1014800084BD85B5826085BD85B5816085BD80914F
:101490006E00816080936E001092810080918100C7
:1014A00082608093810080918100816080938100BF
:1014B000809180008160809380008091B100846081
:1014C0008093B1008091B00081608093B0008091E2
:1014D0007A00846080937A0080917A0082608093A1
:1014E0007A0080917A00816080937A0080917A00FE
:1014F000806880937A001092C10010927602109258
:1015000077021092780210927902109234021092AF
:101510003502109236021092370260ED77E080E0DB
:1015200090E00E9410098DE992E0909375028093FB
:1015300074020E9483030E944A09609334027093EC
:101540003502809336029093370261EF71E080910B
:101550007402909175020E943A056AE070E080E0A2
:1015600090E00E94100981E08093480262E083E8E5
:1015700092E00E94AB0360919302862F8260809379
:1015800093026A6083E892E00E94290A61E088E0A1
:101590000E94D40860E087E00E94D40860E08DE0FB
:1015A0000E94D40885E090E00E94BC11EC011882F2
:1015B00090937B0280937A0285E090E00E94BC11B8
:1015C0006C0188E6F60180831282118214821382F4
:1015D00085E090E00E94BC118C0186E7F8018083D1
:1015E000128211821482138285E090E00E94BC1165
:1015F0007C0183E7F7018083D282C1821483038355
:1016000085E090E00E94BC116C0186E6F6018083C3
:10161000128211821482138285E090E00E94BC1134
:101620008C0185E7F801808314821382D282C18203
:1016300085E090E00E94BC116C0189E6F601808390
:10164000F282E1821483038385E090E00E94BC1162
:101650008C018CE6F801808312821182148213823D
:1016600085E090E00E94BC115C0182E7F501808377
:10167000148213821283018385E090E00E94BC11E2
:101680004C0180E7F401808312821182148213825C
:1016900085E090E00E94BC117C018AE6F70180831E
:1016A000128211821482138285E090E00E94BC11A4
:1016B0008C0187E7F801808392828182F482E38241
:1016C00085E090E00E94BC117C0181E6F7018083F7
:1016D000B282A1821483038385E090E00E94BC1152
:1016E0008C0185E6F8018083D282C182F482E38294
:1016F00085E090E00E94BC116C0182E6F6018083D7
:10170000128211821482138285E090E00E94BC1143
:101710007C0188E7F7018083128211821482138290
:1017200085E090E00E94BC115C0184E6F5018083B5
:10173000D282C182F482E38285E090E00E94BC11F3
:101740004C0183E6F4018083128211821482138299
:1017500085E090E00E94BC116C0189E7F60180836E
:10176000128211821482138285E090E00E94BC11E3
:101770007C018BE6F701808392828182D482C382CE
:1017800085E090E00E94BC116C018EE6F60180833A
:10179000B282A182F482E38285E090E00E94BC11D3
:1017A0005C018AE7F5018083128211821482138220
:1017B00085E090E00E94BC117C0181E7F701808305
:1017C000128211821482138285E090E00E94BC1183
:1017D0004C0187E6F4018083B282A182F482E38225
:1017E00085E090E00E94BC115C018FE6F5018083EA
:1017F000128211821482138285E090E00E94BC1153
:101800007C018DE6F701808392828182B482A3827B
:1018100085E090E00E94BC11FC0184E78083D282C5
:10182000C182F482E3821A830983FC83EB830E94E2
:10183000830384EFC82EDD24D394E12CF12C5524AE
:10184000539401E010E00E944A09672B682B692B32
:1018500041F40E944A09623071058105910508F43E
:101860000BC10E944A0960932E0270932F0280934D
:1018700030029093310280902A0290902B02A09027
:101880002C02B0902D02681579058A059B0540F45D
:1018900060932A0270932B0280932C0290932D0266
:1018A00080902A0290902B02A0902C02B0902D02E2
:1018B0009B01AC01281939094A095B0949015A0100
:1018C0003AEF83169104A104B10408F4D5C06093E3
:1018D0002A0270932B0280932C0290932D02C092C7
:1018E0004002D0924102E0924202F09243021092F2
:1018F00044021092450210924602109247028091D3
:10190000380290913902A0913A02B0913B02809343
:101910003C0290933D02A0933E02B0933F020E948E
:101920004A09609338027093390280933A02909387
:101930003B020E944A0960933402709335028093FF
:101940003602909337020E944A094B015C0163E022
:1019500072E080917402909175020E943A052AE02B
:1019600041E050E060E070E0809174029091750277
:101970000E94F1046AE072E0809174029091750215
:101980000E943A052AE0B501A40180917402909169
:1019900075020E94F1046CE072E0809174029091F3
:1019A00075020E943A058091380290913902A09107
:1019B0003A02B0913B02B501A401481B590B6A0BD6
:1019C0007B0B2AE080917402909175020E94F104D1
:1019D0006CE072E080917402909175020E943A0569
:1019E000409138025091390260913A0270913B0265
:1019F00080913C0290913D02A0913E02B0913F0245
:101A0000481B590B6A0B7B0B2AE080917402909162
:101A100075020E94F1046EE072E080917402909170
:101A200075020E943A050E944A09AB01BC012AE0F6
:101A300080917402909175020E94F104A09074024A
:101A4000B090750260E172E0C5010E94DC0460E0C4
:101A500072E0C5010E94DC0465E070E080E090E087
:101A60000E9410090E944A0960933802709339025B
:101A700080933A0290933B0287E00E94650821E040
:101A8000892B09F420E080912202882309F448C0C0
:101A90002111A4C088E00E944E040E944A090E94BD
:101AA000F5124B015C0120E030E44CE156E460911A
:101AB0001E0270911F0280912002909121020E94CB
:101AC00056139B01AC01C501B4010E946C1020E0CB
:101AD00030E040E753E40E94F012181614F4CDE20F
:101AE00001C0CEE280911A0290911B020196909360
:101AF0001B0280931A02109222020E944A090E943D
:101B0000F51220E030E44CE156E40E94D9106093D5
:101B10001E0270931F02809320029093210245C001
:101B200021112AC00E944A090E94F5124B015C0152
:101B300020E030E44CE156E460911E0270911F02F7
:101B400080912002909121020E9456139B01AC01CA
:101B5000C501B4010E946C1020E030E040E254E482
:101B60000E944B1187FD3AC0809128029091290272
:101B7000892BA1F1C0E219C084E591E00E946401C3
:101B8000509222020E944A090E94F51220E030E49D
:101B90004CE156E40E94D91060931E0270931F021C
:101BA000809320029093210219C080912802909185
:101BB00029020497A4F46C2F83E892E00E94D504D4
:101BC0008091280290912902FC01EC5DFD4FC083B9
:101BD0000196909329028093280219C1C0E0A09039
:101BE0002802B090290244E0A416B10419F0C032D2
:101BF00009F0CDC0E0917A02F0917B02A4E2B2E05C
:101C000052E0A832B50799F08D91982F9F7D79F019
:101C10008D3231F08E32A1F70180F281E02D03C0C8
:101C20000380F481E02D309759F7CFE301C0C081E4
:101C300080918002909181024C01EFEF8E1A9E0AF2
:101C40008815990508F047C020917E0230917F02E7
:101C50002815390570F509962817390750F5609051
:101C60007C0270907D0290937F0280937E020E949E
:101C7000BC1190937D0280937C0220E030E0809143
:101C80008002909181022817390780F4E0917C024C
:101C9000F0917D02E20FF31F309729F0D301A20FDC
:101CA000B31F8C9180832F5F3F4FE9CFC3010E9408
:101CB000511280918002909181028815990570F4EB
:101CC000E0917C02F0917D02E80FF91F309709F056
:101CD000C0830196F2CF8816990620F49092810273
:101CE000809280028091800290918102019790936E
:101CF0001B0280931A0210931D0200931C0261E0E4
:101D00000E946E036C2F83E892E00E94230A0E94D7
:101D10002C0A80911A0290911B02A80EB91EB09253
:101D20001B02A0921A0210921D0210921C02C4E221
:101D3000D2E02091280230912902CE0184529240B3
:101D400082179307FCF480911A0290911B0201976D
:101D500097FF02C080E090E090931B0280931A02EC
:101D600060911C020E946E0367E172E083E892E0DA
:101D70000E943A0560911C0280911A020E946E0333
:101D80001992D7CF109229021092280240C08DE0FC
:101D90000E94650820912302892B91F1211137C0FF
:101DA0008091800290918102019797FF02C080E0AC
:101DB00090E090931B0280931A0210931D020093EF
:101DC0001C0261E00E946E0367E172E083E892E02A
:101DD0000E943A050E942C0A2091800230918102D3
:101DE000C90101978217930720F490938102809391
:101DF0008002509223028CE390E00E94640107C0AD
:101E0000222329F01092230288E00E944E042091A0
:101E1000800230918102809100019091010182172E
:101E2000930738F40196909301018093000168E1D3
:101E300015C02817390718F4813191054CF46AE070
:101E400070E080E090E00E9410090E946A05FBCCDF
:101E5000019790930101809300016CE183E892E087
:101E60000E94290A0E942C0AEACF80917C0290915C
:101E70007D020E9451128FE493E00E94A7078DE734
:101E800093E00C94F507CF93DF93ADE9B2E013969E
:101E90001C921E92129748EE53E060E070E0149698
:101EA0004D935D936D937C93179785E391E0119625
:101EB0009C938E9385EC90E01D969C938E931C973B
:101EC00084EC90E01F969C938E931E9780EC90E09C
:101ED00051969C938E93509781EC90E053969C93EF
:101EE0008E93529782EC90E055969C938E935497E4
:101EF00086EC90E057969C938E93569759961C9239
:101F000059975A961C925A975B961C925B975C96CF
:101F10001C925C97E2E3F2E016821782108611862B
:101F2000128613861486158616861786108A118ADD
:101F3000128A138A148A158AEDE7F3E0C1E2D0E031
:101F4000D08FC78B118E128E138E46E050E060E06A
:101F500070E0448F558F668F778F10A211A212A266
:101F600013A220E224A316A215A211A68FE793E0E4
:101F700090A787A383ED91E0918380838DED91E01D
:101F8000958B848B16821582108617821286118695
:101F90001486138616861586108A178681EB91E0C3
:101FA00093838283B38BA28B30E1318BEFE4F3E038
:101FB000D48FC38F158E168E178E40A351A362A3A4
:101FC00073A314A215A216A217A220A712A611A6E7
:101FD00015A6128213821482158225E533E034A7F8
:101FE00023A72BE531E03183208325E631E0318FD3
:101FF000208F128611861486138616861586108AFF
:102000001786128A118A148A138A97838683B78B5C
:10201000A68B88E0858BB0939C02A0939B0263ED16
:1020200076E08BEE96E00E945511E3E8F2E0138231
:1020300012828DEE91E0918380838CE084838FEF18
:1020400085838BE0868385E0878384E0808783E0D7
:10205000818782E082871386148615861686178606
:1020600061E0CF010E94AB03CCE7D2E088E090E0D2
:102070009B838A831D821C820E94BC119983888362
:1020800010927B0210927A02DF91CF910895052E73
:1020900097FB1EF400940E945E1057FD07D00E942B
:1020A000141407FC03D04EF40C945E105095409528
:1020B000309521953F4F4F4F5F4F089590958095F4
:1020C000709561957F4F8F4F9F4F0895EE0FFF1FC3
:1020D0000590F491E02D09945058BB27AA270E943F
:1020E00084100C94DA130E94CC1338F00E94D3139E
:1020F00020F039F49F3F19F426F40C94C9130EF420
:10210000E095E7FB0C94C313E92F0E94EB1358F3FF
:10211000BA17620773078407950720F079F4A6F5CC
:102120000C940D140EF4E0950B2EBA2FA02D0B017C
:10213000B90190010C01CA01A0011124FF27591B0C
:1021400099F0593F50F4503E68F11A16F040A22F12
:10215000232F342F4427585FF3CF46953795279583
:10216000A795F0405395C9F77EF41F16BA0B620B82
:10217000730B840BBAF09150A1F0FF0FBB1F661FC9
:10218000771F881FC2F70EC0BA0F621F731F841F0C
:1021900048F4879577956795B795F7959E3F08F032
:1021A000B0CF9395880F08F09927EE0F97958795F4
:1021B00008950E94ED100C94DA130E94D31358F086
:1021C0000E94CC1340F029F45F3F29F00C94C31314
:1021D00051110C940E140C94C9130E94EB1368F364
:1021E0009923B1F3552391F3951B550BBB27AA27D0
:1021F00062177307840738F09F5F5F4F220F331F0A
:10220000441FAA1FA9F335D00E2E3AF0E0E832D0D1
:1022100091505040E695001CCAF72BD0FE2F29D0D4
:10222000660F771F881FBB1F261737074807AB07A6
:10223000B0E809F0BB0B802DBF01FF2793585F4F1B
:102240003AF09E3F510578F00C94C3130C940E1491
:102250005F3FE4F3983ED4F3869577956795B795FD
:10226000F7959F5FC9F7880F911D9695879597F908
:102270000895E1E0660F771F881FBB1F6217730781
:102280008407BA0720F0621B730B840BBA0BEE1F96
:1022900088F7E09508950E94321308F48FEF0895AF
:1022A00081E090E0F8940C9436140F931F93CF9331
:1022B000DF93009731F46115710519F480E090E027
:1022C0003AC08B01EC016EE070E081E090E00E948A
:1022D000A011FC01892B91F380E88383011511057E
:1022E00071F01387028781E883838091B003909116
:1022F000B103892B21F4F093B103E093B00320974D
:10230000C9F0D187C0878381826083838091B203C3
:102310009091B303892B71F4F093B303E093B2036C
:102320008091B4039091B503892B21F4F093B50308
:10233000E093B403CF01DF91CF911F910F910895E6
:102340000F931F93CF93DF93869F8001879F100D7C
:10235000969F100D1124C8010E94BC11EC0100973A
:1023600029F0A80160E070E00E94E912CE01DF913F
:10237000CF911F910F910895CF93DF9382309105F4
:1023800010F482E090E0E091B803F091B90320E00E
:1023900030E0C0E0D0E0309711F140815181481722
:1023A0005907C0F04817590761F48281938120973B
:1023B00019F09B838A832BC09093B9038093B80351
:1023C00026C02115310519F04217530718F49A0158
:1023D000BE01DF01EF010280F381E02DDCCF21158A
:1023E000310509F1281B390B2430310590F4129680
:1023F0008D919C9113976115710521F0FB019383D9
:10240000828304C09093B9038093B803FD01329690
:1024100044C0FD01E20FF31F8193919322503109D3
:102420002D933C933AC02091B6033091B703232BF0
:1024300041F420910501309106013093B7032093B8
:10244000B60320910301309104012115310541F4B7
:102450002DB73EB74091070150910801241B350B61
:10246000E091B603F091B703E217F307A0F42E1B37
:102470003F0B2817390778F0AC014E5F5F4F2417E8
:10248000350748F04E0F5F1F5093B7034093B603D4
:102490008193919302C0E0E0F0E0CF01DF91CF9112
:1024A00008950F931F93CF93DF93009709F48CC087
:1024B000FC013297138212820091B8031091B90384
:1024C0000115110581F420813181820F931F209124
:1024D000B6033091B7032817390779F5F093B7039E
:1024E000E093B60371C0D80140E050E0AE17BF07DB
:1024F00050F412962D913C911397AD0121153105A1
:1025000009F1D901F3CF9D01DA0133832283608180
:102510007181860F971F8217930769F4EC01288158
:102520003981260F371F2E5F3F4F318320838A81E9
:102530009B8193838283452B29F4F093B903E09325
:10254000B80342C01396FC93EE931297ED014991A4
:1025500059919E01240F351FE217F30771F4808112
:102560009181840F951F029611969C938E93828180
:10257000938113969C938E931297E0E0F0E0D8013C
:1025800012968D919C911397009719F0F8018C0188
:10259000F6CF8D919C9198012E5F3F4F820F931F34
:1025A0002091B6033091B7032817390769F43097A3
:1025B00029F41092B9031092B80302C01382128258
:1025C0001093B7030093B603DF91CF911F910F9142
:1025D0000895DC0101C06D9341505040E0F708952B
:1025E0000E94321308F481E00895E89409C097FB33
:1025F0003EF490958095709561957F4F8F4F9F4FDA
:102600009923A9F0F92F96E9BB279395F69587951D
:1026100077956795B795F111F8CFFAF4BB0F11F4E0
:1026200060FF1BC06F5F7F4F8F4F9F4F16C0882387
:1026300011F096E911C0772321F09EE8872F762FBD
:1026400005C0662371F096E8862F70E060E02AF0FE
:102650009A95660F771F881FDAF7880F96958795EA
:1026600097F90895990F0008550FAA0BE0E8FEEFBF
:1026700016161706E807F907C0F012161306E40746
:10268000F50798F0621B730B840B950B39F40A263F
:1026900061F0232B242B252B21F408950A2609F41D
:1026A000A140A6958FEF811D811D08950E94691399
:1026B0000C94DA130E94CC1338F00E94D31320F04C
:1026C000952311F00C94C3130C94C91311240C948A
:1026D0000E140E94EB1370F3959FC1F3950F50E019
:1026E000551F629FF001729FBB27F00DB11D639FC4
:1026F000AA27F00DB11DAA1F649F6627B00DA11D6A
:10270000661F829F2227B00DA11D621F739FB00D0F
:10271000A11D621F839FA00D611D221F749F33277F
:10272000A00D611D231F849F600D211D822F762F18
:102730006A2F11249F5750409AF0F1F088234AF0F5
:10274000EE0FFF1FBB1F661F771F881F9150504061
:10275000A9F79E3F510580F00C94C3130C940E14FE
:102760005F3FE4F3983ED4F3869577956795B795E8
:10277000F795E7959F5FC1F7FE2B880F911D969502
:10278000879597F9089597F99F6780E870E060E072
:1027900008959FEF80EC089500240A9416161706FA
:1027A00018060906089500240A9412161306140642
:1027B00005060895092E0394000C11F4882352F0A5
:1027C000BB0F40F4BF2B11F460FF04C06F5F7F4F5D
:1027D0008F4F9F4F089557FD9058440F551F59F044
:1027E0005F3F71F04795880F97FB991F61F09F3FFE
:1027F00079F087950895121613061406551FF2CF27
:102800004695F1DF08C0161617061806991FF1CF76
:1028100086957105610508940895E894BB2766279D
:102820007727CB0197F90895A1E21A2EAA1BBB1BAB
:10283000FD010DC0AA1FBB1FEE1FFF1FA217B3078C
:10284000E407F50720F0A21BB30BE40BF50B661FA2
:10285000771F881F991F1A9469F760957095809566
:1028600090959B01AC01BD01CF01089510E0C3E636
:10287000D0E004C0FE010E9466102196C436D10744
:06288000C9F7F894FFCF38
:102886001000FF0000BA03800018000000000000DE
:10289600000000E8FFE8FF00000000000014000050
:1028A60000000000000000ECFFECFF00000000004C
:1028B6000000000000980037015E053C0550054306
:1028C6000806000000000086078807FAFFFAFF00E6
:1028D6000087078A07180000000000A707BE07E860
:1028E600FFE8FF0000B407C8075B010F0119016587
:1028F6000100000000A0098407D206CF06CC06C955
:1029060006C6063D063906360620064006C405C23A
:1029160005020000000000D407D607FEFFFEFF00F8
:1029260000D507D80700000000A209200800000013
:1029360000A109D207D206CF06CC06C906C606BA3A
:102946000674065B064206400631071007140000AF
:10295600000000F5070C08ECFFECFF00000208166B
:1029660008D30123012D01DD0100000000230A37F1
:1029760001564D4450565F317C315F564D4450569A
:102986000D0A00564D4450455F003A323A007C002D
:0A2996005F564D445045002000003C
:00000001FF
